:1000000014C097C1A2C12CC02BC02AC029C028C0CF
:1000100027C026C025C024C023C022C021C020C0C4
:100020001FC01EC01DC0A7C19BC111241FBECFE5AC
:10003000D1E0DEBFCDBF10E0A0E6B0E0E6E4F6E040
:1000400002C005900D92AC36B107D9F720E0ACE6BE
:10005000B0E001C01D92A838B207E1F7B9D1F1C2F2
:10006000CFCFEF92FF920F931F93CF93DF93C82FC1
:1000700090E080E08BD1CB014BD200E710E0D0E0E4
:10008000C059DF4F84E0E82EF12C0C171D0739F41E
:10009000DF91CF911F910F91FF90EF90089534D28F
:1000A000B701A2D1F80181938F01EFCF84E088BB23
:1000B000089581E088BB089588E088BB089582E0B8
:1000C00088BB089518BA08959C012115310509F4DB
:1000D000089589EF90E00197F1F700C000002150EA
:1000E0003109F3CFAF92BF92CF92DF92EF92FF929E
:1000F0000F931F93CF93DF93162F072F90E7E92ECF
:1001000090E0F92EC82FD0E0C059DF4F28E0D22E62
:1001100032E0C32EBB24B39444E0A42EEC16FD06BB
:1001200059F4DF91CF911F910F91FF90EF90DF90E5
:10013000CF90BF90AF900895F70181917F018230F9
:10014000B9F020F4811112C0A8BA02C0833091F036
:10015000812F902FB9DF18BAFFE322E48FE0F1502E
:1001600020408040E1F700C00000D8CFB8BAF0CFFF
:10017000D8BAEECFC8BAECCF8FE087BB089588ED30
:100180008BBF85B78A6085BF85B78A7F85BF289A70
:10019000209A08958FE088BB2FEB37E299E0215039
:1001A00030409040E1F700C0000018BA2FEF34E370
:1001B0009CE0215030409040E1F700C0000088BB37
:1001C0002FEB37E289E0215030408040E1F700C05A
:1001D000000018BA9FEF24E33CE0915020403040EB
:1001E000E1F700C00000089584E090E02FE028BB14
:1001F0003FEB47E259E0315040405040E1F700C04A
:10020000000018BA3FEF44E35CE0315040405040FA
:10021000E1F700C00000019751F7089580916E004A
:1002200090916F008230910591F180F4892BA1F4B7
:100230008091650090916600049708F079C081E094
:1002400090E090936F0080936E0008958330910545
:1002500099F10497E9F10895809162008D5F01DFC3
:1002600010926D0010926C0095DF84E090E0909306
:100270006600809365002FE382E49FE02150804078
:100280009040E1F700C0000082E090E0DACF60919A
:10029000600070916100809162008D5F23DF109299
:1002A0006D0010926C0084E090E090936600809363
:1002B000650083E090E0C5CF809165009091660075
:1002C000049734F484E090E090936F0080936E0084
:1002D00080916C0090916D00FC01E059FF4F4081CE
:1002E000209165003091660042171306E1F40196F3
:1002F00090936D0080936C002091630030916400B6
:1003000082179307B1F6809162008F5F809362003D
:10031000809160009091610080549F4190936100B2
:1003200080936000B1CF60DF10926F0010926E007A
:1003300008951F921FB61F9211241092660010920A
:1003400065001F901FBE1F9018958F939F9381E0AB
:1003500090E090936600809365009F918F9118952F
:100360008F939F9382E090E0909366008093650066
:100370009F918F9118958F939F9383E090E0909336
:100380006600809365009F918F911895A4E0B0E07E
:10039000EBECF1E00DC1FC010FB6F8948091840004
:1003A00090918500A0918600B091870089839A83FF
:1003B000AB83BC830FBE309721F080839183A283EF
:1003C000B38369817A818B819C812496E2E00CC1A0
:1003D0008FE087BBD4DE789484E090E09093660051
:1003E000809365001BDFFECF97FB072E16F4009469
:1003F00006D077FD08D00BD007FC05D03EF49095D1
:1004000081959F4F0895709561957F4F0895AA1B20
:10041000BB1B51E107C0AA1FBB1FA617B70710F0EF
:10042000A61BB70B881F991F5A95A9F78095909521
:10043000BC01CD010895CF92DF92EF92FF92CF934E
:10044000DF93CDB7DEB72A970FB6F894DEBF0FBEA5
:10045000CDBF89879A87A985BA858D919D910D9089
:10046000BC91A02D89839A83AB83BC83892B8A2B73
:100470008B2B41F484E299EDABE5B7E089839A8355
:10048000AB83BC8369817A818B819C812DE133EFC1
:1004900041E050E061D02D833E834F8358876983CC
:1004A0007A838B839C8327EA31E440E050E03BD0A1
:1004B0006B017C012CEE34EF4FEF5FEF6D817E819D
:1004C0008F81988530D0DC01CB018C0D9D1DAE1D38
:1004D000BF1DB7FF03C00197A109B048E985FA85A0
:1004E00080839183A283B3839F772A960FB6F89473
:1004F000DEBF0FBECDBFDF91CF91FF90EF90DF90B9
:10050000CF90089598DF089587E690E094DF0895EE
:10051000B0E0A0E08093670090936800A09369002A
:10052000B0936A000895EE27FF27AA27BB2708C0CB
:10053000A20FB31FE41FF51F220F331F441F551FC7
:10054000969587957795679598F37040A9F70097EA
:1005500099F7BD01CF010895052E97FB16F400947D
:100560000FD057FD05D04BD007FC02D046F408C091
:1005700050954095309521953F4F4F4F5F4F0895CF
:1005800090958095709561957F4F8F4F9F4F0895FF
:100590002F923F924F925F926F927F928F929F9293
:1005A000AF92BF92CF92DF92EF92FF920F931F9381
:1005B000CF93DF93CDB7DEB7CA1BDB0B0FB6F89432
:1005C000DEBF0FBECDBF09942A88398848885F8472
:1005D0006E847D848C849B84AA84B984C884DF80E3
:1005E000EE80FD800C811B81AA81B981CE0FD11DC7
:1005F0000FB6F894DEBF0FBECDBFED010895A1E2A6
:100600001A2EAA1BBB1BFD010DC0AA1FBB1FEE1F8C
:10061000FF1FA217B307E407F50720F0A21BB30BD7
:10062000E40BF50B661F771F881F991F1A9469F753
:1006300060957095809590959B01AC01BD01CF01AF
:060640000895F894FFCFBD
:0C06460010270104000400010000000067
:00000001FF
