:1000000014C02FC048C019C018C017C016C015C0F2
:1000100014C013C012C011C010C00FC00EC00DC05C
:100020000CC00BC00AC009C050C011241FBECFE5D0
:10003000D1E0DEBFCDBF63D066C0E2CF8FE087BB2B
:10004000889889988A988B98089580ED8BBF85B79A
:100050008A6085BF85B78A7F85BF85B1836085B992
:1000600008951F921FB61F9211242F938F939F9371
:1000700084E088BB2FE38DE093E0215080409040E6
:10008000E1F700C0000018BA9F918F912F911F9047
:100090001FBE1F9018951F921FB61F9211242F93F9
:1000A0008F939F9381E088BB2FE38DE093E02150F5
:1000B00080409040E1F700C0000018BA9F918F91F6
:1000C0002F911F901FBE1F9018951F921FB61F9251
:1000D00011242F938F939F9388E088BB2FE38DE0AB
:1000E00093E0215080409040E1F700C0000018BA32
:1000F0009F918F912F911F901FBE1F9018959EDF8B
:0A010000A4DF7894FFCFF894FFCF3E
:00000001FF
