:1000000014C034C055C019C018C017C016C015C0E0
:1000100014C013C012C011C010C00FC00EC00DC05C
:100020000CC00BC00AC009C008C011241FBECFE518
:10003000D1E0DEBFCDBF16D0A1C0E2CF8FE087BB3D
:10004000889889988A988B98089585B78A6085BF23
:1000500085B78A7F85BF8BB7806C8BBF84B1836087
:1000600084B90895EBDFF1DF7894FFCF1F920F92F0
:100070000FB60F9211242F933F938F939F93EF937B
:10008000FF9384E088BB80E197E229E130E0F90149
:100090003197F1F70197D9F718BAFF91EF919F9136
:1000A0008F913F912F910F900FBE0F901F90189539
:1000B0001F920F920FB60F9211242F933F938F939D
:1000C0009F93EF93FF9381E088BB80E197E229E162
:1000D00030E0F9013197F1F70197D9F718BAFF919C
:1000E000EF919F918F913F912F910F900FBE0F90A5
:1000F0001F9018951F920F920FB60F9211242F93F5
:100100003F938F939F93EF93FF9382E088BB80E1AF
:1001100097E229E130E0F9013197F1F70197D9F73A
:1001200018BAFF91EF919F918F913F912F910F906E
:100130000FBE0F901F9018951F920F920FB60F923F
:1001400011242F933F938F939F93EF93FF9388E016
:1001500088BB80E197E229E130E0F9013197F1F7BE
:100160000197D9F718BAFF91EF919F918F913F9125
:100170002F910F900FBE0F901F901895F894FFCFFE
:00000001FF
