:1000000014C011C21BC22CC02BC02AC029C028C0DA
:1000100027C026C025C024C023C0DCC121C020C009
:100020001FC01EC01DC022C214C211241FBECFE5B6
:10003000D1E0DEBFCDBF10E0A0E6B0E0EAE4F7E03B
:1000400002C005900D92A836B107D9F720E0A8E6C6
:10005000B0E001C01D92A938B207E1F736D273C3F0
:10006000CFCFEF92FF920F931F93CF93DF93C82FC1
:1000700090E080E008D2CB01CDD20CE610E0D0E0D9
:10008000C459DF4F84E0E82EF12C0C171D0739F41A
:10009000DF91CF911F910F91FF90EF900895B6D20D
:1000A000B70124D28F5FF80181938F01EECF84E0F6
:1000B00088BB089581E088BB089588E088BB0895D7
:1000C00082E088BB089518BA08959C012115310576
:1000D00009F4089589EF90E00197F1F700C000005E
:1000E00021503109F3CF0F931F93CF93DF939B01DF
:1000F0004CE650E0FA0168E072E0A4E0B1E09E2F27
:10010000941B981728F0DF91CF911F910F910895BC
:1001100030936100209360009191933039F1F0F4B5
:10012000913001F1923001F1109269001092680053
:100130000091680010916900C0916000D091610049
:100140000C171D07A8F318BA9FE9C6E8D1E0915033
:10015000C040D040E1F700C00000D1CF943021F77B
:1001600078BBE2CFA8BBE0CFB8BBDECF68BBDCCFAB
:100170008FE087BB089588ED8BBF81E084B982E072
:1001800085B98AE085BF08958FE088BB2FEB37E201
:1001900099E0215030409040E1F700C0000018BACB
:1001A0002FEF34E39CE0215030409040E1F700C055
:1001B000000088BB2FEB37E289E0215030408040BF
:1001C000E1F700C0000018BA9FEF24E33CE0915033
:1001D00020403040E1F700C0000008958FE088BB68
:1001E0002FEB37E299E0215030409040E1F700C01A
:1001F000000018BA2FEF34E39CE0215030409040CB
:10020000E1F700C0000088BB2FEB37E299E02150F6
:1002100030409040E1F700C0000018BA2FEF34E3FF
:100220009CE0215030409040E1F700C0000088BBC6
:100230002FEB37E289E0215030408040E1F700C0E9
:10024000000018BA9FEF24E33CE09150204030407A
:10025000E1F700C000000895809180009091810036
:100260008830910509F45AC054F48230910539F16F
:100270008430910509F43FC0019769F008958032F8
:10028000910509F481C08034910509F496C0409726
:1002900009F44DC008958091820090918300892BCC
:1002A00049F182E090E09093810080938000109269
:1002B00083001092820081E08093840065CF80915A
:1002C00084008D5FCEDE10926B0010926A00109257
:1002D0008300109282002FE382E49FE0215080404F
:1002E0009040E1F700C0000084E090E0909381002E
:1002F000809380000895609160007091610080910A
:1003000084008D5FF0DE10926B0010926A001092F4
:1003100083001092820088E090E0E8CF8091820014
:1003200090918300892B31F380E190E0DFCF209121
:100330006A0030916B00F901E459FF4F40818091D0
:1003400082009091830048171906D9F42F5F3F4F20
:1003500030936B0020936A008091840090E00396B4
:100360002817390759F480E290E090938100809338
:1003700080001092830010928200089588E090E03F
:10038000F4CF80E490E0F1CF809160009091610023
:10039000893C910550F08091600090916100885CEB
:1003A00091099093610080936000809184008F5F39
:1003B0008093840082E090E099CF10DF81E090E0AC
:1003C00095CF10BE83E083BF12BE8CE986BF81E06B
:1003D00089BF08951F921FB61F9211242F933F9338
:1003E0008F939F93809168009091690001969093FC
:1003F00069008093680020916800309169008091C5
:100400006000909161002817390728F018BA1092FF
:100410006900109268009F918F913F912F911F90DA
:100420001FBE1F9018958F939F9381E090E090934B
:100430008300809382009F918F9118958F939F9353
:1004400082E090E090938300809382009F918F914F
:1004500018958F939F93819906C083E090E09093C5
:100460008300809382009F918F9118958F939F9323
:10047000C89906C084E090E0909383008093820046
:100480009F918F911895A4E0B0E0E8E4F2E012C1EA
:10049000FC010FB6F8948091850090918600A091A0
:1004A0008700B091880089839A83AB83BC830FBE99
:1004B000309721F080839183A283B38369817A810D
:1004C0008B819C812496E2E011C18FE087BB53DED3
:1004D00078DF81E090E0909381008093800010921B
:1004E0008300109282007894B7DEFECF97FB072E30
:1004F00016F4009406D077FD08D00BD007FC05D089
:100500003EF4909581959F4F0895709561957F4F2A
:100510000895AA1BBB1B51E107C0AA1FBB1FA6174A
:10052000B70710F0A61BB70B881F991F5A95A9F79C
:1005300080959095BC01CD010895CF92DF92EF9206
:10054000FF92CF93DF93CDB7DEB72A970FB6F8941B
:10055000DEBF0FBECDBF89879A87A985BA858D91E9
:100560009D910D90BC91A02D89839A83AB83BC8310
:10057000892B8A2B8B2B41F484E299EDABE5B7E014
:1005800089839A83AB83BC8369817A818B819C81C7
:100590002DE133EF41E050E061D02D833E834F8366
:1005A000588769837A838B839C8327EA31E440E010
:1005B00050E03BD06B017C012CEE34EF4FEF5FEF4E
:1005C0006D817E818F81988530D0DC01CB018C0DCF
:1005D0009D1DAE1DBF1DB7FF03C00197A109B04807
:1005E000E985FA8580839183A283B3839F772A96D6
:1005F0000FB6F894DEBF0FBECDBFDF91CF91FF9055
:10060000EF90DF90CF90089598DF089584E690E012
:1006100094DF0895B0E0A0E08093640090936500BB
:10062000A0936600B09367000895EE27FF27AA27DE
:10063000BB2708C0A20FB31FE41FF51F220F331FF3
:10064000441F551F969587957795679598F3704049
:10065000A9F7009799F7BD01CF010895052E97FBE3
:1006600016F400940FD057FD05D04BD007FC02D0F4
:1006700046F408C050954095309521953F4F4F4F17
:100680005F4F089590958095709561957F4F8F4F3E
:100690009F4F08952F923F924F925F926F927F9259
:1006A0008F929F92AF92BF92CF92DF92EF92FF9282
:1006B0000F931F93CF93DF93CDB7DEB7CA1BDB0B2E
:1006C0000FB6F894DEBF0FBECDBF09942A883988D3
:1006D00048885F846E847D848C849B84AA84B984DA
:1006E000C884DF80EE80FD800C811B81AA81B981E6
:1006F000CE0FD11D0FB6F894DEBF0FBECDBFED01FA
:100700000895A1E21A2EAA1BBB1BFD010DC0AA1F52
:10071000BB1FEE1FFF1FA217B307E407F50720F06A
:10072000A21BB30BE40BF50B661F771F881F991FE5
:100730001A9469F760957095809590959B01AC012E
:0A074000BD01CF010895F894FFCF2A
:08074A00D007040001000000CB
:00000001FF
