:1000000014C0C7C1DAC12CC02BC02AC029C028C067
:1000100027C026C025C024C023C022C021C020C0C4
:100020001FC01EC01DC0F1C1DCC111241FBECFE521
:10003000D1E0DEBFCDBF10E0A0E6B0E0EEE2F6E03A
:1000400002C005900D92A836B107D9F720E0A8E6C6
:10005000B0E001C01D92A738B207E1F7FFD1E5C2B9
:10006000CFCFEF92FF920F931F93CF93DF93C82FC1
:1000700080E090E0E0D1CB0176D20AE610E0D0E05B
:1000800084E0E82EF12CC8018A5690408C179D0719
:1000900044F465D2B701F2D18F5FF80181938F01EB
:1000A000F2CFDF91CF911F910F91FF90EF900895C4
:1000B00084E088BB089581E088BB089588E088BB10
:1000C000089582E088BB089518BA0895009741F01A
:1000D000E9EFF0E03197F1F700C000000197F6CFAB
:1000E0000895AF92BF92CF92DF92EF92FF920F935B
:1000F0001F93CF93DF93D82F7B010AE610E0C0E077
:10010000DD24D39488E0C82E92E0B92E24E0A22EFC
:10011000CD1709F1F80181918F01823059F020F457
:10012000813059F4A8BA09C0833031F0843029F401
:10013000B8BA03C0D8BA01C0C8BAC701C7DF18BA75
:10014000FFE322E48FE0F15020408040E1F700C05F
:100150000000CF5FDDCFDF91CF911F910F91FF9016
:10016000EF90DF90CF90BF90AF9008958FE087BB66
:10017000089588ED8BBF299A209A8AE085BF08955B
:100180008FE088BB2FEB37E299E021503040904060
:10019000E1F700C0000018BA2FEF34E39CE02150D3
:1001A00030409040E1F700C0000088BB2FEB37E201
:1001B00089E0215030408040E1F700C0000018BACB
:1001C0009FEF24E33CE0915020403040E1F700C035
:1001D0000000089584E090E02FE028BB3FEB47E269
:1001E00059E0315040405040E1F700C0000018BADB
:1001F0003FEF44E35CE0315040405040E1F700C045
:100200000000019751F7089580917E0090917F0042
:100210008031910509F45EC05CF48430910579F178
:100220008830910509F443C0029709F0B1C00CC0B1
:100230008034910509F493C08038910509F4A1C078
:10024000809709F0A5C056C08091800090918100F0
:100250009C01215031092230310518F0049709F032
:1002600097C084E090E090937F0080937E0010928E
:1002700081001092800081E08093820081CF809184
:1002800082008D5FEEDE109269001092680010927D
:100290008100109280002FE382E49FE02150804093
:1002A0009040E1F700C0000088E090E06DC06091F0
:1002B000600070916100809182008D5F12DF10926A
:1002C000690010926800109281001092800080E115
:1002D00090E05AC080918000909181009C01215053
:1002E00031092230310518F0049709F051C080E23D
:1002F00090E04AC0209168003091690040918000F0
:1003000050918100F901E659FF4F808190E08417F8
:10031000950719F041305105D9F42F5F3F4F3093C5
:100320006900209368008091820090E0039628176E
:10033000390719F480E490E002C080E190E09093E6
:100340007F0080937E0010928100109280000895BB
:10035000109281001092800080E890E015C080919A
:1003600060009091610080549F4190936100809360
:100370006000809182008F5F8093820084E090E033
:1003800003C028DF82E090E090937F0080937E009E
:1003900008951F920F920FB60F9211248F939F937F
:1003A00081E090E090938100809380009F918F91F5
:1003B0000F900FBE0F901F9018951F920F920FB6BF
:1003C0000F9211248F939F9382E090E0909381008D
:1003D000809380009F918F910F900FBE0F901F9080
:1003E00018951F920F920FB60F9211248F939F931F
:1003F00083E090E090938100809380009F918F91A3
:100400000F900FBE0F901F9018951F920F920FB66E
:100410000F9211248F939F93C89906C084E090E0B7
:1004200090938100809380009F918F910F900FBED9
:100430000F901F901895FC010FB6F89460918300FF
:100440007091840080918500909186000FBE309756
:1004500021F0608371838283938308958FE087BB4B
:1004600088DE82E090E090937F0080937E0010927F
:100470008100109280007894C7DEFECF97FB072E94
:1004800016F4009406D077FD08D00BD007FC05D0F9
:100490003EF4909581959F4F0895709561957F4F9B
:1004A0000895AA1BBB1B51E107C0AA1FBB1FA617BB
:1004B000B70710F0A61BB70B881F991F5A95A9F70D
:1004C00080959095BC01CD0108958F929F92AF9237
:1004D000BF92CF92DF92EF92FF92CF93DF93EC0126
:1004E000688179818A819B816115710581059105FA
:1004F00021F464E279ED8BE597E02DE133EF41E003
:1005000050E055D049015A0127EA31E440E050E07B
:1005100035D06B017C012CEE34EF4FEF5FEFC5015E
:10052000B4012CD0DC01CB018C0D9D1DAE1DBF1D77
:10053000B7FF03C00197A109B04888839983AA83B4
:10054000BB839F77DF91CF91FF90EF90DF90CF90AB
:10055000BF90AF909F908F900895B7DF089584E685
:1005600090E0B3DF0895A0E0B0E080936400909342
:100570006500A0936600B09367000895EE27FF27FB
:10058000AA27BB2708C0A20FB31FE41FF51F220F25
:10059000331F441F551F969587957795679598F358
:1005A0007040A9F7009799F7BD01CF010895052E76
:1005B00097FB16F400940FD057FD05D014D007FC1C
:1005C00002D046F408C050954095309521953F4F94
:1005D0004F4F5F4F089590958095709561957F4F2F
:1005E0008F4F9F4F0895A1E21A2EAA1BBB1BFD013E
:1005F0000DC0AA1FBB1FEE1FFF1FA217B307E40702
:10060000F50720F0A21BB30BE40BF50B661F771F59
:10061000881F991F1A9469F7609570958095909539
:0E0620009B01AC01BD01CF010895F894FFCFFE
:08062E0060EA04000100000075
:00000001FF
