:1000000014C018C222C22CC02BC02AC029C028C0CC
:1000100027C026C025C024C023C022C021C020C0C4
:100020001FC01EC01DC027C21BC211241FBECFE5AA
:10003000D1E0DEBFCDBF10E0A0E6B0E0E6E8F6E03C
:1000400002C005900D92A836B107D9F720E0A8E6C6
:10005000B0E001C01D92A638B207E1F717D211C374
:10006000CFCFCF92DF92EF92FF920F931F93CF9358
:10007000C82F853108F0C4E182E7E82E80E0F82E31
:10008000870194E0C92ED12C802F8E198C1740F057
:10009000CF911F910F91FF90EF90DF90CF90089537
:1000A0008AD2B601F8D1F80181938F01EDCF84E0B7
:1000B00088BB089581E088BB089588E088BB0895D7
:1000C00082E088BB089518BA089510926F001092CC
:1000D0006E0010926D0010926C0010926B001092E6
:1000E0006A00109269001092680008959C01211521
:1000F000310509F4089589EF90E00197F1F700C008
:10010000000021503109F3CFAF92BF92CF92DF921E
:10011000EF92FF920F931F93CF93DF93162F072F2A
:1001200092E7E92E90E0F92EC82FD0E0CE58DF4FAD
:1001300028E0D22E32E0C32EBB24B39444E0A42E98
:10014000EC16FD0659F4DF91CF911F910F91FF90AE
:10015000EF90DF90CF90BF90AF900895F70181911D
:100160007F018230B9F020F4811112C0A8BA02C018
:10017000833091F0812F902FB9DF18BAFFE322E48A
:100180008FE0F15020408040E1F700C00000D8CF60
:10019000B8BAF0CFD8BAEECFC8BAECCF0F931F934E
:1001A000CF93DF9302E710E0C82FD0E0CE58DF4FA7
:1001B000C017D10711F481E018C087DFF8018081F2
:1001C000811118C020916C0030916D0040916A003F
:1001D00050916B00242B352B4091680050916900A1
:1001E000242B352B232B09F44EC0DF91CF911F9187
:1001F0000F9108958130A9F480916E0090916F0065
:1002000020916A0030916B00822B932B2091680023
:1002100030916900822B932B892B09F441C080E037
:10022000E4CF8230B9F480916E0090916F002091FC
:100230006C0030916D00822B932B209168003091DF
:100240006900822B932B892B51F780916A00909142
:100250006B001DC08330E9F480916E0090916F00B7
:1002600020916C0030916D00822B932B20916A00BD
:1002700030916B00822B932B892B89F6809168003B
:100280009091690004C080916E0090916F00892B5D
:1002900061F483ED90E30197F1F700C000008ECF89
:1002A00080916C0090916D00F2CFEFE4F3EC319708
:1002B000F1F700C000000F5F1F4F7ACF8FE087BBC0
:1002C000889889988A988B98089588ED8BBF85B710
:1002D0008A6085BF85B78A7F85BF289A209A08954E
:1002E0008FE088BB2FEB37E299E0215030409040FF
:1002F000E1F700C0000018BA2FEF34E39CE0215072
:1003000030409040E1F700C0000088BB2FEB37E29F
:1003100089E0215030408040E1F700C0000018BA69
:100320009FEF24E33CE0915020403040E1F700C0D3
:100330000000089584E090E02FE028BB3FEB47E207
:1003400059E0315040405040E1F700C0000018BA79
:100350003FEF44E35CE0315040405040E1F700C0E3
:100360000000019751F708958091700090917100FD
:1003700082309105A1F110F5892B19F5A6DE809147
:100380006E0090916F0020916C0030916D00822B77
:10039000932B20916A0030916B00822B932B20913C
:1003A000680030916900822B932B892BF1F181E059
:1003B00090E0909371008093700008950397F1F09E
:1003C00008958EDF82DE2FE382E49FE0215080409B
:1003D0009040E1F700C0000082E090E0EACF809119
:1003E00062008D5F3EDE60916000709161008091DF
:1003F00062008D5F89DE83E090E0DBCF8091620058
:100400008D5FCCDE882381F0809162008F5F8093C6
:100410006200809160009091610080549F419093B0
:10042000610080936000D8CF85DF10927100109238
:10043000700008958F939F9381E090E090936F00F8
:1004400080936E009F918F9118958F939F9381E079
:1004500090E090936D0080936C009F918F91189520
:100460008F939F9381E090E090936B0080936A005C
:100470009F918F9118958F939F9381E090E0909337
:100480006900809368009F918F91189517DF1DDF99
:1004900078946ADFFECF97FB072E16F4009406D0FF
:1004A00077FD08D00BD007FC05D03EF490958195E0
:1004B0009F4F0895709561957F4F0895AA1BBB1BB0
:1004C00051E107C0AA1FBB1FA617B70710F0A61B54
:1004D000B70B881F991F5A95A9F780959095BC0175
:1004E000CD010895CF92DF92EF92FF92CF93DF93E9
:1004F000CDB7DEB72A970FB6F894DEBF0FBECDBFDB
:1005000089879A87A985BA858D919D910D90BC9117
:10051000A02D89839A83AB83BC83892B8A2B8B2B59
:1005200041F484E299EDABE5B7E089839A83AB832C
:10053000BC8369817A818B819C812DE133EF41E01D
:1005400050E061D02D833E834F83588769837A833F
:100550008B839C8327EA31E440E050E03BD06B0181
:100560007C012CEE34EF4FEF5FEF6D817E818F8148
:10057000988530D0DC01CB018C0D9D1DAE1DBF1DBB
:10058000B7FF03C00197A109B048E985FA858083C8
:100590009183A283B3839F772A960FB6F894DEBF28
:1005A0000FBECDBFDF91CF91FF90EF90DF90CF9046
:1005B000089598DF089583E690E094DF0895B0E011
:1005C000A0E08093630090936400A0936500B093D3
:1005D00066000895EE27FF27AA27BB2708C0A20FB1
:1005E000B31FE41FF51F220F331F441F551F96959D
:1005F00087957795679598F37040A9F7009799F7D5
:10060000BD01CF010895052E97FB16F400940FD07D
:1006100057FD05D014D007FC02D046F408C0509511
:100620004095309521953F4F4F4F5F4F08959095DE
:100630008095709561957F4F8F4F9F4F0895A1E2F0
:100640001A2EAA1BBB1BFD010DC0AA1FBB1FEE1F4C
:10065000FF1FA217B307E407F50720F0A21BB30B97
:10066000E40BF50B661F771F881F991F1A9469F713
:1006700060957095809590959B01AC01BD01CF016F
:060680000895F894FFCF7D
:08068600102701010000000033
:00000001FF
