:1000000014C0DBC1EEC12CC02BC02AC029C028C03F
:1000100027C026C025C024C023C022C021C020C0C4
:100020001FC01EC01DC007C2F0C111241FBECFE5F6
:10003000D1E0DEBFCDBF10E0A0E6B0E0E4E3F6E043
:1000400002C005900D92AA36B107D9F720E0AAE6C2
:10005000B0E001C01D92A538B207E1F702D2E8C2B4
:10006000CFCFEF92FF920F931F93CF93DF93C82FC1
:10007000809162009091630089589F4F9093630034
:100080008093620073D20CE610E0D0E084E0E82EAA
:10009000F12CC8018C5690408C179D0744F462D215
:1000A000B701EFD18F5FF80181938F01F2CFDF911C
:1000B000CF911F910F91FF90EF90089584E088BB3E
:1000C000089581E088BB089588E088BB089582E0A8
:1000D00088BB089518BA0895009741F0E9EFF0E061
:1000E0003197F1F700C000000197F6CF0895AF9265
:1000F000BF92CF92DF92EF92FF920F931F93CF9315
:10010000DF93D82F7B010CE610E0C0E0DD24D39410
:1001100088E0C82E92E0B92E24E0A22ECD1709F176
:10012000F80181918F01823059F020F4813059F427
:10013000A8BA09C0833031F0843029F4B8BA03C0BA
:10014000D8BA01C0C8BAC701C7DF18BAFFE322E4B2
:100150008FE0F15020408040E1F700C00000CF5F09
:10016000DDCFDF91CF911F910F91FF90EF90DF9046
:10017000CF90BF90AF9008958FE087BB089588ED32
:100180008BBF81E084B982E085B98AE085BF08959C
:100190008FE088BB2FEB37E299E021503040904050
:1001A000E1F700C0000018BA2FEF34E39CE02150C3
:1001B00030409040E1F700C0000088BB2FEB37E2F1
:1001C00089E0215030408040E1F700C0000018BABB
:1001D0009FEF24E33CE0915020403040E1F700C025
:1001E0000000089584E090E02FE028BB3FEB47E259
:1001F00059E0315040405040E1F700C0000018BACB
:100200003FEF44E35CE0315040405040E1F700C034
:100210000000019751F7089580918000909181002E
:100220008830910509F46DC064F482309105F1F1D4
:100230008430910509F452C08130910509F0BCC0A9
:100240000CC08032910509F494C08034910509F402
:10025000ACC0409709F0B0C05EC020916200309100
:100260006300225035433093630020936200409135
:10027000820050918300452B71F082E090E09093D2
:10028000810080938000109283001092820081E0B0
:10029000809384007DCF90938100809380002D5EB9
:1002A0003F4F309363002093620008958091840053
:1002B0008D5FD7DE10926B0010926A00109283005F
:1002C000109282002FE382E49FE021508040904012
:1002D000E1F700C0000084E090E06AC06091600037
:1002E00070916100809184008D5F01DF10926B003E
:1002F00010926A00109283001092820088E090E0D1
:1003000057C08091820090918300892B09F454C0DA
:1003100080E190E04DC020916A0030916B00F901BE
:10032000E459FF4F808190E040918200509183001A
:100330008417950799F42F5F3F4F30936B002093FC
:100340006A008091840090E003962817390719F419
:1003500080E290E005C088E090E002C080E490E098
:10036000909381008093800010928300109282000D
:10037000089580916200909163008253954090931C
:1003800063008093620080916000909161008054CE
:100390009F419093610080936000809184008F5F03
:1003A0008093840082E090E003C01CDF81E090E055
:1003B000909381008093800008951F920F920FB652
:1003C0000F9211248F939F9381E090E0909383008C
:1003D000809382009F918F910F900FBE0F901F907E
:1003E00018951F920F920FB60F9211248F939F931F
:1003F00082E090E090938300809382009F918F91A0
:100400000F900FBE0F901F9018951F920F920FB66E
:100410000F9211248F939F93819906C083E090E0FF
:1004200090938300809382009F918F910F900FBED5
:100430000F901F9018951F920F920FB60F921124D4
:100440008F939F93C89906C084E090E090938300B7
:10045000809382009F918F910F900FBE0F901F90FD
:1004600018958FE087BB8BDE81E090E09093810050
:100470008093800010928300109282007894CCDEEA
:10048000FECF97FB072E16F4009406D077FD08D018
:100490000BD007FC05D03EF4909581959F4F0895B1
:1004A000709561957F4F0895AA1BBB1B51E107C052
:1004B000AA1FBB1FA617B70710F0A61BB70B881FF4
:1004C000991F5A95A9F780959095BC01CD01089583
:1004D0008F929F92AF92BF92CF92DF92EF92FF9254
:1004E000CF93DF93EC01688179818A819B816115CB
:1004F00071058105910521F464E279ED8BE597E0C2
:100500002DE133EF41E050E055D049015A0127EA8F
:1005100031E440E050E035D06B017C012CEE34EF4B
:100520004FEF5FEFC501B4012CD0DC01CB018C0D86
:100530009D1DAE1DBF1DB7FF03C00197A109B048A7
:1005400088839983AA83BB839F77DF91CF91FF90A4
:10055000EF90DF90CF90BF90AF909F908F900895D5
:10056000B7DF089586E690E0B3DF0895A0E0B0E03D
:100570008093660090936700A0936800B093690031
:100580000895EE27FF27AA27BB2708C0A20FB31F95
:10059000E41FF51F220F331F441F551F96958795A3
:1005A0007795679598F37040A9F7009799F7BD0183
:1005B000CF010895052E97FB16F400940FD057FD38
:1005C00005D014D007FC02D046F408C050954095E1
:1005D000309521953F4F4F4F5F4F089590958095EF
:1005E000709561957F4F8F4F9F4F0895A1E21A2E0E
:1005F000AA1BBB1BFD010DC0AA1FBB1FEE1FFF1FC7
:10060000A217B307E407F50720F0A21BB30BE40B16
:10061000F50B661F771F881F991F1A9469F760955D
:100620007095809590959B01AC01BD01CF01089517
:04063000F894FFCF6C
:0A06340060EAAD0B040001000000B5
:00000001FF
