:1000000014C0D3C1DDC12CC02BC02AC0FEC128C082
:1000100027C026C025C024C023C022C021C020C0C4
:100020001FC01EC01DC0E4C1D6C111241FBECFE534
:10003000D1E0DEBFCDBF10E0A0E6B0E0EAE4F6E03C
:1000400002C005900D92AA36B107D9F720E0AAE6C2
:10005000B0E001C01D92A938B207E1F7EED1F3C2BA
:10006000CFCFEF92FF920F931F93CF93DF93C82FC1
:10007000809164009091650089589F4F909365002E
:10008000809364007ED20CE610E0D0E0C459DF4FCC
:1000900084E0E82EF12C0C171D0739F4DF91CF9185
:1000A0001F910F91FF90EF90089567D2B701D5D1BE
:1000B0008F5FF80181938F01EECF84E088BB0895B4
:1000C00081E088BB089588E088BB089582E088BB02
:1000D000089518BA08959C0110928300109282002E
:1000E00081E090E0909388008093870082E089BF50
:1000F00080918200909183008217930734F019BE9B
:100100001092880010928700089588B388BBF0CFC2
:10011000AF92BF92CF92DF92EF92FF920F931F9315
:10012000CF93DF93162F072F9CE6E92E90E0F92E50
:10013000C82FD0E0C459DF4F28E0D22E32E0C32EC2
:1001400044E0B42EAA24A394EC16FD0659F4DF91E2
:10015000CF911F910F91FF90EF90DF90CF90BF90C4
:10016000AF900895F70181917F018330A9F060F489
:10017000813071F0823071F0812F902FACDF18BA8E
:100180008EE190E0A8DFE0CF8430B1F7C8BAF4CFB9
:10019000B8BAF2CFA8BAF0CFD8BAEECF8FE087BB0B
:1001A000089588ED8BBF81E084B982E085B98AE04B
:1001B00085BF10BE85E083BF12BE109288001092EA
:1001C000870010928300109282000895CF93CFE0B1
:1001D000C8BB8EE190E07FDF18BA88E290E07BDF59
:1001E000C8BB8EE190E077DF18BA88E290E0CF914B
:1001F00072CF1F93CF93DF93C3E0D0E01FE018BB13
:100200008EE190E068DF18BA88E290E064DF219721
:10021000B1F7DF91CF911F91089580918000909167
:1002200081008830910509F466C054F4823091054C
:10023000C9F18430910509F44BC0019769F0089524
:100240008032910509F48DC08034910509F4A9C06C
:10025000409709F459C00895809164009091650019
:100260009C01225035433093650020936400209117
:10027000850030918600232B71F082E090E090930E
:10028000810080938000109286001092850081E0AA
:10029000809384009BCF8F5E9443909365008093FE
:1002A00064000895809184008D5FDBDE10926B0006
:1002B00010926A0010928600109285008EE190E004
:1002C0000ADF84E090E0909381008093800008959D
:1002D0006091600070916100809184008D5F18DFF3
:1002E00010926B0010926A001092860010928500A6
:1002F00088E090E0E8CF8091850090918600892B7E
:1003000031F380E190E0DFCF20916A0030916B0003
:10031000F901E459FF4F408180918500909186005A
:1003200048171906D9F42F5F3F4F30936B00209385
:100330006A008091840090E003962817390759F4E9
:1003400080E290E09093810080938000109286007C
:1003500010928500089588E090E0F4CF80E490E06A
:10036000F1CF809164009091650082539540909305
:100370006500809364002091620030916300809159
:10038000600090916100821B930B909361008093B9
:100390006000809184008F5F8093840082E090E011
:1003A00092CF27DF81E090E08ECF8F939F9381E003
:1003B00090E090938600809385009F918F9118958F
:1003C0008F939F9382E090E09093860080938500C6
:1003D0009F918F9118958F939F93819906C083E089
:1003E00090E090938600809385009F918F9118955F
:1003F0008F939F93C89906C084E090E09093860005
:10040000809385009F918F9118958F938FB78F93CD
:100410009F938091870090918800009749F0809188
:1004200082009091830001969093830080938200D4
:100430009F918F918FBF8F9118958FE087BBB1DE11
:1004400081E090E09093810080938000109286007C
:10045000109285007894E1DEFECF97FB072E16F40C
:10046000009406D077FD08D00BD007FC05D03EF4F1
:10047000909581959F4F0895709561957F4F089550
:10048000AA1BBB1B51E107C0AA1FBB1FA617B707BA
:1004900010F0A61BB70B881F991F5A95A9F78095D6
:1004A0009095BC01CD010895CF92DF92EF92FF921B
:1004B000CF93DF93CDB7DEB72A970FB6F894DEBFA0
:1004C0000FBECDBF89879A87A985BA858D919D91E9
:1004D0000D90BC91A02D89839A83AB83BC83892B1B
:1004E0008A2B8B2B41F484E299EDABE5B7E089834D
:1004F0009A83AB83BC8369817A818B819C812DE156
:1005000033EF41E050E061D02D833E834F83588725
:1005100069837A838B839C8327EA31E440E050E04F
:100520003BD06B017C012CEE34EF4FEF5FEF6D8120
:100530007E818F81988530D0DC01CB018C0D9D1D93
:10054000AE1DBF1DB7FF03C00197A109B048E985E3
:10055000FA8580839183A283B3839F772A960FB60F
:10056000F894DEBF0FBECDBFDF91CF91FF90EF902B
:10057000DF90CF90089598DF089586E690E094DFAD
:100580000895B0E0A0E08093660090936700A09388
:100590006800B09369000895EE27FF27AA27BB27BC
:1005A00008C0A20FB31FE41FF51F220F331F441F03
:1005B000551F969587957795679598F37040A9F79D
:1005C000009799F7BD01CF010895052E97FB16F40A
:1005D00000940FD057FD05D014D007FC02D046F48C
:1005E00008C050954095309521953F4F4F4F5F4F34
:1005F000089590958095709561957F4F8F4F9F4F8F
:100600000895A1E21A2EAA1BBB1BFD010DC0AA1F53
:10061000BB1FEE1FFF1FA217B307E407F50720F06B
:10062000A21BB30BE40BF50B661F771F881F991FE6
:100630001A9469F760957095809590959B01AC012F
:0A064000BD01CF010895F894FFCF2B
:0A064A003D001E00AD0B0100000092
:00000001FF
