:1000000014C06CC17FC12CC02BC02AC029C028C01D
:1000100027C026C025C024C023C022C021C020C0C4
:100020001FC01EC01DC096C181C111241FBECFE5D7
:10003000D1E0DEBFCDBF10E0A0E6B0E0E8E6F5E03D
:1000400002C005900D92AA36B107D9F720E0AAE6C2
:10005000B0E001C01D92A838B207E1F7A2D182C278
:10006000CFCFEF92FF920F931F93CF93DF93C82FC1
:1000700080E090E083D1CB0113D20EE610E0D0E017
:1000800084E0E82EF12CC8018E5690408C179D0715
:1000900044F402D2B7018FD18F5FF80181938F01B1
:1000A000F2CFDF91CF911F910F91FF90EF900895C4
:1000B00084E088BB089581E088BB089588E088BB10
:1000C000089582E088BB089518BA0895009741F01A
:1000D000E9EFF0E03197F1F700C000000197F6CFAB
:1000E0000895AF92BF92CF92DF92EF92FF920F935B
:1000F0001F93CF93DF93D82F7B010EE610E0C0E073
:10010000DD24D39488E0C82E92E0B92E24E0A22EFC
:10011000CD1709F1F80181918F01823059F020F457
:10012000813059F4A8BA09C0833031F0843029F401
:10013000B8BA03C0D8BA01C0C8BAC701C7DF18BA75
:10014000FFE322E48FE0F15020408040E1F700C05F
:100150000000CF5FDDCFDF91CF911F910F91FF9016
:10016000EF90DF90CF90BF90AF9008958FE087BB66
:10017000089588ED8BBF85B78A6085BF85B78A7F74
:1001800085BF289A209A08958FE088BB2FEB37E22D
:1001900099E0215030409040E1F700C0000018BACB
:1001A0002FEF34E39CE0215030409040E1F700C055
:1001B000000088BB2FEB37E289E0215030408040BF
:1001C000E1F700C0000018BA9FEF24E33CE0915033
:1001D00020403040E1F700C00000089584E090E046
:1001E0002FE028BB3FEB47E259E031504040504000
:1001F000E1F700C0000018BA3FEF44E35CE0315083
:1002000040405040E1F700C00000019751F70895C9
:1002100080916C0090916D008130910569F018F02B
:10022000049709F1089580918200909183008130B4
:10023000910509F04EC047C0809162008D5F11DFCB
:1002400010926B0010926A009FDF10928300109250
:1002500082002FE382E49FE0215080409040E1F74C
:1002600000C000002BC080916A0090916B00FC01DF
:10027000E259FF4F208130E040918200509183008D
:100280002417350729F5019690936B0080936A0037
:1002900020916300309164008217930791F480915C
:1002A00062008F5F80936200809160009091610096
:1002B00080549F41909361008093600082E090E0C1
:1002C00002C083E090E090936D0080936C000895ED
:1002D00085DF10926D0010926C0008951F920F92AE
:1002E0000FB60F9211248F939F9381E090E090932B
:1002F0008300809382009F918F910F900FBE0F908B
:100300001F9018951F920F920FB60F9211248F9382
:100310009F9382E090E090938300809382009F916E
:100320008F910F900FBE0F901F9018951F920F92F4
:100330000FB60F9211248F939F9383E090E09093D8
:100340008300809382009F918F910F900FBE0F903A
:100350001F9018951F920F920FB60F9211248F9332
:100360009F9384E090E090938300809382009F911C
:100370008F910F900FBE0F901F901895FC010FB634
:10038000F89460918400709185008091860090912E
:1003900087000FBE309721F060837183828393833F
:1003A00008958FE087BBE5DE789410928300109269
:1003B00082002EDFFECF97FB072E16F4009406D0A6
:1003C00077FD08D00BD007FC05D03EF490958195C1
:1003D0009F4F0895709561957F4F0895AA1BBB1B91
:1003E00051E107C0AA1FBB1FA617B70710F0A61B35
:1003F000B70B881F991F5A95A9F780959095BC0156
:10040000CD0108958F929F92AF92BF92CF92DF92CB
:10041000EF92FF92CF93DF93EC01688179818A811B
:100420009B81611571058105910521F464E279EDE7
:100430008BE597E02DE133EF41E050E055D04901E5
:100440005A0127EA31E440E050E035D06B017C01ED
:100450002CEE34EF4FEF5FEFC501B4012CD0DC017F
:10046000CB018C0D9D1DAE1DBF1DB7FF03C00197B5
:10047000A109B04888839983AA83BB839F77DF91C2
:10048000CF91FF90EF90DF90CF90BF90AF909F9073
:100490008F900895B7DF089585E690E0B3DF089563
:1004A000A0E0B0E08093650090936600A0936700A1
:1004B000B09368000895EE27FF27AA27BB2708C03E
:1004C000A20FB31FE41FF51F220F331F441F551F38
:1004D000969587957795679598F37040A9F700975B
:1004E00099F7BD01CF010895052E97FB16F40094EE
:1004F0000FD057FD05D014D007FC02D046F408C039
:1005000050954095309521953F4F4F4F5F4F08953F
:1005100090958095709561957F4F8F4F9F4F08956F
:10052000A1E21A2EAA1BBB1BFD010DC0AA1FBB1FF7
:10053000EE1FFF1FA217B307E407F50720F0A21B69
:10054000B30BE40BF50B661F771F881F991F1A94D6
:1005500069F760957095809590959B01AC01BD0100
:08056000CF010895F894FFCFCC
:0A056800102701040001000000004C
:00000001FF
