:1000000014C02AC01AC019C018C017C016C015C025
:1000100014C013C012C011C010C00FC00EC00DC05C
:100020000CC00BC00AC009C008C011241FBECFE518
:10003000D1E0DEBFCDBF02D031C0E2CF88E087BBC8
:100040008A9885B7826085BF85B78E7F85BF8BB75D
:1000500080648BBF7894FFCF1F920F920FB60F92E0
:1000600011242F933F938F939F93EF93FF9388E0F7
:1000700088BB80E197E229E130E0F9013197F1F79F
:100080000197D9F718BAFF91EF919F918F913F9106
:100090002F910F900FBE0F901F901895F894FFCFDF
:00000001FF
