:1000000014C07EC188C12CC02BC02AC029C028C002
:1000100027C026C025C024C023C022C021C020C0C4
:100020001FC01EC01DC08DC181C111241FBECFE5E0
:10003000D1E0DEBFCDBF10E0A0E6B0E0E4E0F6E046
:1000400002C005900D92A836B107D9F720E0A8E6C6
:10005000B0E001C01D92AA38B207E1F79FD1D0C22B
:10006000CFCF90E080E078D1CB0131C2CF92DF9248
:10007000EF92FF920F931F93CF93C82F853108F013
:10008000C4E182E7E82E80E0F82E870194E0C92ED3
:10009000D12C802F8E198C1740F0CF911F910F918A
:1000A000FF90EF90DF90CF9008950DD2B6017BD1F5
:1000B000F80181938F01EDCF84E088BB089581E042
:1000C00088BB089588E088BB089582E088BB0895C6
:1000D00018BA089510926F0010926E0010926D0081
:1000E00010926C0010926B0010926A0010926900DE
:1000F0001092680008959C012115310509F40895B6
:1001000089EF90E00197F1F700C00000215031091C
:10011000F3CFAF92BF92CF92DF92EF92FF920F9305
:100120001F93CF93DF93162F072F92E7E92E90E0CE
:10013000F92EC82FD0E0CE58DF4F28E0D22E32E083
:10014000C32EBB24B39444E0A42EEC16FD0659F450
:10015000DF91CF911F910F91FF90EF90DF90CF90A3
:10016000BF90AF900895F70181917F01823001F136
:1001700068F481111BC0A8BAFFE32DE083E0F150C1
:1001800020408040E1F700C0000002C0833091F0C1
:10019000812F902FB0DF18BA9FE7E4E8FEE191507D
:1001A000E040F040E1F700C00000CFCFB8BAF0CF98
:1001B000D8BAEECFC8BAECCF8FE087BB88988998C1
:1001C0008A988B98089588ED8BBF85B78A6085BF24
:1001D00085B78A7F85BF289A209A08958FE088BBCB
:1001E0002FEB37E299E0215030409040E1F700C01A
:1001F000000018BA2FEF34E39CE0215030409040CB
:10020000E1F700C0000088BB2FEB37E289E0215006
:1002100030408040E1F700C0000018BA9FEF24E3AF
:100220003CE0915020403040E1F700C000000895CC
:1002300080917000909171008130910551F1823070
:100240009105A9F1892BF9F445DF80916E00909119
:100250006F0020916C0030916D00822B932B2091C8
:100260006A0030916B00822B932B209168003091B3
:100270006900822B932B892B39F081E090E09093D9
:1002800071008093700008951092710010927000B8
:100290000895A4DF1FDF2FE382E49FE02150804018
:1002A0009040E1F700C0000082E090E0E8CF80914C
:1002B00062008D5FDBDE6091600070916100809173
:1002C00062008D5F26DF83E090E0D9CF84E090E08C
:1002D0002FE028BB3FEB47E259E03150404050400F
:1002E000E1F700C0000018BA3FEF44E35CE0315092
:1002F00040405040E1F700C00000019751F70895D9
:100300008F939F9381E090E090936F0080936E00B5
:100310009F918F9118958F939F9381E090E0909398
:100320006D0080936C009F918F9118958F939F9390
:1003300081E090E090936B0080936A009F918F9191
:1003400018958F939F9381E090E09093690080933C
:1003500068009F918F911895A4E0B0E0E1EBF1E087
:1003600006C1FC010FB6F894809186009091870039
:10037000A0918800B091890089839A83AB83BC8364
:100380000FBE309721F080839183A283B38369816C
:100390007A818B819C812496E2E005C10DDF13DF19
:1003A000789446DFFECF97FB072E16F4009406D014
:1003B00077FD08D00BD007FC05D03EF490958195D1
:1003C0009F4F0895709561957F4F0895AA1BBB1BA1
:1003D00051E107C0AA1FBB1FA617B70710F0A61B45
:1003E000B70B881F991F5A95A9F780959095BC0166
:1003F000CD010895CF92DF92EF92FF92CF93DF93DA
:10040000CDB7DEB72A970FB6F894DEBF0FBECDBFCB
:1004100089879A87A985BA858D919D910D90BC9108
:10042000A02D89839A83AB83BC83892B8A2B8B2B4A
:1004300041F484E299EDABE5B7E089839A83AB831D
:10044000BC8369817A818B819C812DE133EF41E00E
:1004500050E061D02D833E834F83588769837A8330
:100460008B839C8327EA31E440E050E03BD06B0172
:100470007C012CEE34EF4FEF5FEF6D817E818F8139
:10048000988530D0DC01CB018C0D9D1DAE1DBF1DAC
:10049000B7FF03C00197A109B048E985FA858083B9
:1004A0009183A283B3839F772A960FB6F894DEBF19
:1004B0000FBECDBFDF91CF91FF90EF90DF90CF9037
:1004C000089598DF089583E690E094DF0895B0E002
:1004D000A0E08093630090936400A0936500B093C4
:1004E00066000895EE27FF27AA27BB2708C0A20FA2
:1004F000B31FE41FF51F220F331F441F551F96958E
:1005000087957795679598F37040A9F7009799F7C5
:10051000BD01CF010895052E97FB16F400940FD06E
:1005200057FD05D04BD007FC02D046F408C05095CB
:100530004095309521953F4F4F4F5F4F08959095CF
:100540008095709561957F4F8F4F9F4F08952F92A3
:100550003F924F925F926F927F928F929F92AF9253
:10056000BF92CF92DF92EF92FF920F931F93CF93A0
:10057000DF93CDB7DEB7CA1BDB0B0FB6F894DEBF37
:100580000FBECDBF09942A88398848885F846E845D
:100590007D848C849B84AA84B984C884DF80EE80A7
:1005A000FD800C811B81AA81B981CE0FD11D0FB6B0
:1005B000F894DEBF0FBECDBFED010895A1E21A2E63
:1005C000AA1BBB1BFD010DC0AA1FBB1FEE1FFF1FF7
:1005D000A217B307E407F50720F0A21BB30BE40B47
:1005E000F50B661F771F881F991F1A9469F760958E
:1005F0007095809590959B01AC01BD01CF01089548
:04060000F894FFCF9C
:080604001027010100000000B5
:00000001FF
