:1000000014C0D3C1E6C12CC02BC02AC022C228C054
:1000100027C026C025C024C023C022C021C020C0C4
:100020001FC01EC01DC0FFC1E8C111241FBECFE507
:10003000D1E0DEBFCDBF10E0A0E6B0E0EEE5F6E037
:1000400002C005900D92AA36B107D9F720E0AAE6C2
:10005000B0E001C01D92A938B207E1F717D2FDC286
:10006000CFCFEF92FF920F931F93CF93DF93C82FC1
:10007000809164009091650089589F4F909365002E
:100080008093640088D20CE610E0D0E084E0E82E93
:10009000F12CC8018C5690408C179D0744F477D200
:1000A000B70104D28F5FF80181938F01F2CFDF9106
:1000B000CF911F910F91FF90EF90089584E088BB3E
:1000C000089581E088BB089588E088BB089582E0A8
:1000D00088BB089518BA0895109283001092820088
:1000E00021E030E0309388002093870022E029BF90
:1000F0002091820030918300281739071CF428B31F
:1001000028BBF6CF19BE1092880010928700089580
:10011000AF92BF92CF92DF92EF92FF920F931F9315
:10012000CF93DF93D82F7B010CE610E0C0E0DD24F5
:10013000D39488E0C82E92E0B92E24E0A22ECD17E9
:10014000D9F0F80181918F01823059F020F481308B
:1001500059F4A8BA09C0833031F0843029F4B8BA10
:1001600003C0D8BA01C0C8BAC701B6DF18BA8EE159
:1001700090E0B2DFCF5FE3CFDF91CF911F910F917E
:10018000FF90EF90DF90CF90BF90AF9008958FE0F9
:1001900087BB089588ED8BBF81E084B982E085B983
:1001A0008AE085BF10BE85E083BF12BE1092880032
:1001B0001092870010928300109282000895CF93CE
:1001C000CFE0C8BB8EE190E087DF18BA88E290E00C
:1001D00083DFC8BB8EE190E07FDF18BA88E290E051
:1001E000CF917ACF1F93CF93DF93C3E0D0E01FE08E
:1001F00018BB8EE190E070DF18BA88E290E06CDF07
:100200002197B1F7DF91CF911F91089580918000E0
:10021000909181008830910509F467C064F48230C0
:100220009105F1F18430910509F44CC081309105BC
:1002300009F0BAC00CC08032910509F48EC0803438
:10024000910509F4AAC0409709F0AEC058C02091AA
:10025000640030916500225035433093650020934F
:1002600064004091850050918600452B71F082E03A
:1002700090E090938100809380001092860010920D
:10028000850081E0809384009ACF909381008093D1
:1002900080002D5E3F4F30936500209364000895E9
:1002A000809184008D5FDDDE10926B0010926A00F9
:1002B00010928600109285008EE190E00DDF84E0C0
:1002C00090E06EC060916000709161008091840048
:1002D0008D5F1EDF10926B0010926A0010928600F4
:1002E0001092850088E090E05BC08091850090913D
:1002F0008600892B09F458C080E190E051C020911C
:100300006A0030916B00F901E459FF4F808190E061
:1003100040918500509186008417950799F42F5FCE
:100320003F4F30936B0020936A008091840090E0EF
:1003300003962817390719F480E290E005C088E099
:1003400090E002C080E490E0909381008093800070
:10035000109286001092850008958091640090911B
:1003600065008253954090936500809364002091CE
:100370006200309163008091600090916100821B67
:10038000930B9093610080936000809184008F5F55
:100390008093840082E090E003C024DF81E090E05D
:1003A000909381008093800008951F920F920FB662
:1003B0000F9211248F939F9381E090E09093860099
:1003C000809385009F918F910F900FBE0F901F908B
:1003D00018951F920F920FB60F9211248F939F932F
:1003E00082E090E090938600809385009F918F91AA
:1003F0000F900FBE0F901F9018951F920F920FB67F
:100400000F9211248F939F93819906C083E090E00F
:1004100090938600809385009F918F910F900FBEDF
:100420000F901F9018951F920F920FB60F921124E4
:100430008F939F93C89906C084E090E090938600C4
:10044000809385009F918F910F900FBE0F901F900A
:1004500018951F920F920FB60F9211248F939F93AE
:100460008091870090918800892B49F080918200CB
:1004700090918300019690938300809382009F91D6
:100480008F910F900FBE0F901F9018958FE087BB34
:1004900081DE81E090E09093810080938000109253
:1004A0008600109285007894B1DEFECF97FB072E70
:1004B00016F4009406D077FD08D00BD007FC05D0C9
:1004C0003EF4909581959F4F0895709561957F4F6B
:1004D0000895AA1BBB1B51E107C0AA1FBB1FA6178B
:1004E000B70710F0A61BB70B881F991F5A95A9F7DD
:1004F00080959095BC01CD0108958F929F92AF9207
:10050000BF92CF92DF92EF92FF92CF93DF93EC01F5
:10051000688179818A819B816115710581059105C9
:1005200021F464E279ED8BE597E02DE133EF41E0D2
:1005300050E055D049015A0127EA31E440E050E04B
:1005400035D06B017C012CEE34EF4FEF5FEFC5012E
:10055000B4012CD0DC01CB018C0D9D1DAE1DBF1D47
:10056000B7FF03C00197A109B04888839983AA8384
:10057000BB839F77DF91CF91FF90EF90DF90CF907B
:10058000BF90AF909F908F900895B7DF089586E653
:1005900090E0B3DF0895A0E0B0E080936600909310
:1005A0006700A0936800B09369000895EE27FF27C5
:1005B000AA27BB2708C0A20FB31FE41FF51F220FF5
:1005C000331F441F551F969587957795679598F328
:1005D0007040A9F7009799F7BD01CF010895052E46
:1005E00097FB16F400940FD057FD05D014D007FCEC
:1005F00002D046F408C050954095309521953F4F64
:100600004F4F5F4F089590958095709561957F4FFE
:100610008F4F9F4F0895A1E21A2EAA1BBB1BFD010D
:100620000DC0AA1FBB1FEE1FFF1FA217B307E407D1
:10063000F50720F0A21BB30BE40BF50B661F771F29
:10064000881F991F1A9469F7609570958095909509
:0E0650009B01AC01BD01CF010895F894FFCFCE
:0A065E003D000600AD0B0100000096
:00000001FF
